{
  "_format": "hh-sol-artifact-1",
  "contractName": "coffeContract",
  "sourceName": "contracts/mainContrct.sol",
  "abi": [
    {
      "inputs": [],
      "stateMutability": "nonpayable",
      "type": "constructor"
    },
    {
      "anonymous": false,
      "inputs": [
        {
          "indexed": true,
          "internalType": "address",
          "name": "sender",
          "type": "address"
        },
        {
          "indexed": false,
          "internalType": "uint256",
          "name": "timeStamp",
          "type": "uint256"
        },
        {
          "indexed": false,
          "internalType": "string",
          "name": "name",
          "type": "string"
        },
        {
          "indexed": false,
          "internalType": "uint256",
          "name": "amount",
          "type": "uint256"
        },
        {
          "indexed": false,
          "internalType": "string",
          "name": "message",
          "type": "string"
        }
      ],
      "name": "senderSended",
      "type": "event"
    },
    {
      "inputs": [
        {
          "internalType": "string",
          "name": "name",
          "type": "string"
        },
        {
          "internalType": "string",
          "name": "message",
          "type": "string"
        }
      ],
      "name": "BuyMeACoffe",
      "outputs": [],
      "stateMutability": "payable",
      "type": "function"
    },
    {
      "inputs": [],
      "name": "getSenders",
      "outputs": [
        {
          "components": [
            {
              "internalType": "address",
              "name": "senderAddress",
              "type": "address"
            },
            {
              "internalType": "uint256",
              "name": "timeStamp",
              "type": "uint256"
            },
            {
              "internalType": "string",
              "name": "name",
              "type": "string"
            },
            {
              "internalType": "uint256",
              "name": "amount",
              "type": "uint256"
            },
            {
              "internalType": "string",
              "name": "message",
              "type": "string"
            }
          ],
          "internalType": "struct coffeContract.sender[]",
          "name": "",
          "type": "tuple[]"
        }
      ],
      "stateMutability": "view",
      "type": "function"
    },
    {
      "inputs": [],
      "name": "withDraw",
      "outputs": [],
      "stateMutability": "nonpayable",
      "type": "function"
    }
  ],
  "bytecode": "0x608060405234801561001057600080fd5b50336000806101000a81548173ffffffffffffffffffffffffffffffffffffffff021916908373ffffffffffffffffffffffffffffffffffffffff160217905550610be8806100606000396000f3fe6080604052600436106100345760003560e01c80630fdb1c1014610039578063128e042314610050578063de511be91461007b575b600080fd5b34801561004557600080fd5b5061004e610097565b005b34801561005c57600080fd5b5061006561018e565b60405161007291906107ea565b60405180910390f35b61009560048036038101906100909190610955565b61037b565b005b60008054906101000a900473ffffffffffffffffffffffffffffffffffffffff1673ffffffffffffffffffffffffffffffffffffffff163373ffffffffffffffffffffffffffffffffffffffff1614610125576040517f08c379a000000000000000000000000000000000000000000000000000000000815260040161011c90610a2a565b60405180910390fd5b60008054906101000a900473ffffffffffffffffffffffffffffffffffffffff1673ffffffffffffffffffffffffffffffffffffffff166108fc479081150290604051600060405180830381858888f1935050505015801561018b573d6000803e3d6000fd5b50565b60606001805480602002602001604051908101604052809291908181526020016000905b8282101561037257838290600052602060002090600502016040518060a00160405290816000820160009054906101000a900473ffffffffffffffffffffffffffffffffffffffff1673ffffffffffffffffffffffffffffffffffffffff1673ffffffffffffffffffffffffffffffffffffffff1681526020016001820154815260200160028201805461024590610a79565b80601f016020809104026020016040519081016040528092919081815260200182805461027190610a79565b80156102be5780601f10610293576101008083540402835291602001916102be565b820191906000526020600020905b8154815290600101906020018083116102a157829003601f168201915b50505050508152602001600382015481526020016004820180546102e190610a79565b80601f016020809104026020016040519081016040528092919081815260200182805461030d90610a79565b801561035a5780601f1061032f5761010080835404028352916020019161035a565b820191906000526020600020905b81548152906001019060200180831161033d57829003601f168201915b505050505081525050815260200190600101906101b2565b50505050905090565b600034116103be576040517f08c379a00000000000000000000000000000000000000000000000000000000081526004016103b590610af7565b60405180910390fd5b60016040518060a001604052803373ffffffffffffffffffffffffffffffffffffffff16815260200142815260200184815260200134815260200183815250908060018154018082558091505060019003906000526020600020906005020160009091909190915060008201518160000160006101000a81548173ffffffffffffffffffffffffffffffffffffffff021916908373ffffffffffffffffffffffffffffffffffffffff160217905550602082015181600101556040820151816002019080519060200190610493929190610515565b506060820151816003015560808201518160040190805190602001906104ba929190610515565b5050503373ffffffffffffffffffffffffffffffffffffffff167f6a8564d0c01a55c7ed16c0e873ebf6e05cd528fe597042600bfee9ab6fbf9301428434856040516105099493929190610b5f565b60405180910390a25050565b82805461052190610a79565b90600052602060002090601f016020900481019282610543576000855561058a565b82601f1061055c57805160ff191683800117855561058a565b8280016001018555821561058a579182015b8281111561058957825182559160200191906001019061056e565b5b509050610597919061059b565b5090565b5b808211156105b457600081600090555060010161059c565b5090565b600081519050919050565b600082825260208201905092915050565b6000819050602082019050919050565b600073ffffffffffffffffffffffffffffffffffffffff82169050919050565b600061060f826105e4565b9050919050565b61061f81610604565b82525050565b6000819050919050565b61063881610625565b82525050565b600081519050919050565b600082825260208201905092915050565b60005b8381101561067857808201518184015260208101905061065d565b83811115610687576000848401525b50505050565b6000601f19601f8301169050919050565b60006106a98261063e565b6106b38185610649565b93506106c381856020860161065a565b6106cc8161068d565b840191505092915050565b600060a0830160008301516106ef6000860182610616565b506020830151610702602086018261062f565b506040830151848203604086015261071a828261069e565b915050606083015161072f606086018261062f565b5060808301518482036080860152610747828261069e565b9150508091505092915050565b600061076083836106d7565b905092915050565b6000602082019050919050565b6000610780826105b8565b61078a81856105c3565b93508360208202850161079c856105d4565b8060005b858110156107d857848403895281516107b98582610754565b94506107c483610768565b925060208a019950506001810190506107a0565b50829750879550505050505092915050565b600060208201905081810360008301526108048184610775565b905092915050565b6000604051905090565b600080fd5b600080fd5b600080fd5b600080fd5b7f4e487b7100000000000000000000000000000000000000000000000000000000600052604160045260246000fd5b6108628261068d565b810181811067ffffffffffffffff821117156108815761088061082a565b5b80604052505050565b600061089461080c565b90506108a08282610859565b919050565b600067ffffffffffffffff8211156108c0576108bf61082a565b5b6108c98261068d565b9050602081019050919050565b82818337600083830152505050565b60006108f86108f3846108a5565b61088a565b90508281526020810184848401111561091457610913610825565b5b61091f8482856108d6565b509392505050565b600082601f83011261093c5761093b610820565b5b813561094c8482602086016108e5565b91505092915050565b6000806040838503121561096c5761096b610816565b5b600083013567ffffffffffffffff81111561098a5761098961081b565b5b61099685828601610927565b925050602083013567ffffffffffffffff8111156109b7576109b661081b565b5b6109c385828601610927565b9150509250929050565b600082825260208201905092915050565b7f596f7520776173206e6f74206f776e657220746f207769746864726177000000600082015250565b6000610a14601d836109cd565b9150610a1f826109de565b602082019050919050565b60006020820190508181036000830152610a4381610a07565b9050919050565b7f4e487b7100000000000000000000000000000000000000000000000000000000600052602260045260246000fd5b60006002820490506001821680610a9157607f821691505b60208210811415610aa557610aa4610a4a565b5b50919050565b7f5468656972206973206e6f20636f66666520666f722030457468000000000000600082015250565b6000610ae1601a836109cd565b9150610aec82610aab565b602082019050919050565b60006020820190508181036000830152610b1081610ad4565b9050919050565b610b2081610625565b82525050565b6000610b318261063e565b610b3b81856109cd565b9350610b4b81856020860161065a565b610b548161068d565b840191505092915050565b6000608082019050610b746000830187610b17565b8181036020830152610b868186610b26565b9050610b956040830185610b17565b8181036060830152610ba78184610b26565b90509594505050505056fea2646970667358221220876f5b1bf086cc955cca665dd552f0c8ef0eb27730aa0743a0501eaef9ac8f3464736f6c63430008090033",
  "linkReferences": {},
  "deployedLinkReferences": {}
}